:030000000207668E
:0C076600787FE4F6D8FD75815F0207ADD6
:0D0A1B000B4B537072696E675F5465787401
:10047100750801750901750B00750C01120AD3127B
:1004810009EF120ABD7D027F01120AE6E4F50FF5BC
:1004910010744B2510F8E6FF120AA60510E510703E
:1004A10002050FC3940BE50F940040E5120B117F79
:1004B1002C7E01120A41120B147F5A1206C77FDCEF
:1004C1007E05120A41E4FF1206C77FDC7E05120A8F
:1004D100417F5A1206C77FDC7E05120A41E4FF12F2
:1004E10006C77FDC7E05120A411202E7050CE50C06
:1004F1007002050BAE0BFF7C007D03120182ED241F
:1005010001FFE43CFE120A5F7F587E02120A41AEEF
:100511000BAF0C7C007D03120182ED2401FFE43C52
:10052100FE120A777F2D1206C77514007515007526
:1005310016097B007A0079081205E28F0AE4FF129E
:10054100093C8E0D8F0EE50875F00A84900AF89328
:10055100FD7C007F017E001209BEE50875F00A846A
:10056100E5F0900AF893FD7C007F027E001209BE3F
:10057100E50975F00A84900AF893FD7C007F077EF7
:10058100001209BEE50975F00A84E5F0900AF893B6
:10059100FD7C007F087E001209BE7D027F02120AE7
:1005A100E6AE0DAF0E7C007D6412012DEF2430FF0D
:1005B100120AA6AE0DAF0E7C007D0A12012D7C0041
:1005C1007D0A12012DED2430FF120AA6AE0DAF0EE9
:1005D1007C007D0A12012DED2430FF120AA60204CF
:0105E100ED2C
:0A0AF8007E306D79335B5F707F7B09
:1009BE00AB05AA04D2977D08C296EF339295EF2528
:1009CE00E0FFEE33FED296DDEF7D08C296EB33925A
:1009DE0095EB25E0FBEA33FAD296DDEFC297D2977C
:0109EE0022E6
:1009EF00E4FDFC7F09FE1209BE7D077F0A7E00121F
:1009FF0009BE7D077F0B7E001209BE7D017F0C7E35
:0C0A0F00001209BEE4FD7F0FFE0209BECC
:030B1100C2A0225D
:030B1400D2A0224A
:100A5F00EE7014EF24FE600A14600A24027008C2BC
:080A6F00A222C2A322C2A122AF
:100A7700EE7014EF24FE600A14600A24027008D294
:080A8700A222D2A322D2A12277
:090A28000457FEFDFBF701560026
:0206C7008F1191
:1006C900E4F512751505E51165567003020765E530
:1006D90011D3945A4003020765E511C39400407C85
:1006E900E511D395564038E5119556F5121512E5E1
:1006F900126066E4F513F514C3E5149404E5139444
:100709000050EA74572514F8E65290AF157E00128E
:100719000A4143900F0514E51470DD051380D9C310
:10072900E5569511F5121512E512602D7513007530
:100739001404D3E5149400E513940040E974562594
:1007490014F8E65290AF157E00120A4143900FE566
:0C07590014151470DD151380D98511569D
:010765002271
:100A8F00C2B58F807F057E00120A41D2B47F057EEA
:070A9F0000120A41C2B4225B
:100AA600D2B58F807F057E00120A41D2B47F057EC3
:070AB60000120A41C2B42244
:100ABD00C2B47F38120A8F7F0C120A8F7F06120A7A
:060ACD008F7F01020A8F79
:020AE600AE0759
:100AE8007F80BE020474402FFFED142FFF020A8F8F
:050B0C000000000000E4
:0605E2008B118A1289133F
:1005E80078177C007D007BFF7A0B790C7E007F05F5
:1005F8001200D3751E32D2947F027E00120A41C2C5
:10060800947F1E7E00120A41D2947F037E00120B53
:1006180002751E32309406D51EFA7F01223094FDF1
:100628007F037E00120B022094037F0222751E3284
:10063800309406D51EFA7F0322E4F51CE4F51D74F8
:1006480017251CF8C000E625E0D000F63094FD7FA1
:10065800037E00120B02A294E433FF7417251CF8E2
:10066800EF26F6751E322094FDD51E037F04220561
:100678001DE51DC3940840C7051CE51CC39405402F
:10068800BBD294E5172518FFE433FE7C00EF25194B
:10069800FFEC3EFEEF251AFFEC3EFEEF651B7001F6
:1006A800EE60037F0522AB11AA12A913E519120007
:0E06B800F9AB14AA15A916E5171200F97F0078
:0106C6002211
:10093C00E4FBFAC2A7D2A5C2A40000D2A70000C251
:10094C00A7D2A50000D2A70000C2A7EF24FF92A552
:10095C000000D2A70000C2A7D2A6E4FD0000D2A7D7
:10096C000000C2A7EB25E0FBEA33FA30A6034303F1
:0D097C00010DBD08E7C2A7D2A4AE02AF0373
:01098900224B
:0F0A3100015C0B015E0B015B0B015F0B015D0BA9
:100A4100D3EF9400EE940040147D6E7C00ED1D7098
:0D0A5100011CED4C70F7EF1F70E61E80E3F6
:010A5E002275
:0A0B0200EF1F70011E144E70F72261
:10098A00000000000000000000000000000000005D
:10099A00000000000000000000000000000000004D
:1009AA0000000000736D6172740000000000000016
:0409BA0000006F6B5F
:100AD300759850758920758DFD758BFDD2ACD28EBE
:030AE300D2AF226D
:08087B008F318B328A3389347E
:10088300E4F53678377C00FD7BFF7A09798AFE7FB1
:10089300141200D3E4F536E53175F00A84E5F0244B
:1008A30030FF74372536F8A607E53175F00A84F56D
:1008B300310536E536B414DFE4F536E536C3953550
:1008C300501EC3E5359536FF74362FF8E6AB32AAD2
:1008D30033A93485368275830012010B053680DB1C
:0108E30022F2
:1002E70078117C007D007BFF7A09799E7E007F1064
:1002F7001200D378217C007D007BFF7A0979AE7EDE
:10030700007F051200D378267C007D007BFF7A09E9
:1003170079B37E007F021200D378287C007D007BB2
:10032700FF7A0979B57E007F021200D3782A7C0014
:100337007D007BFF7A0979B77E007F021200D378B0
:100347002C7C007D007BFF7A0979B97E007F011242
:1003570000D3782D7C007D007BFF7A0979BA7E0077
:100367007F021200D3782F7C007D007BFF7A09790A
:10037700BC7E007F021200D378117C007D007B00D9
:100387007A0079211202847B007A0079267535027A
:10039700AF5C12087B7534007535007536267537E6
:1003A700007538027B007A0079111207F27B007A18
:1003B700007928753502AF5E12087B7534007535F4
:1003C700007536287537007538027B007A00791179
:1003D7001207F27B007A00792A753502AF5B1208A3
:1003E7007B75340075350075362A75370075380208
:1003F7007B007A0079111207F27B007A00792C755D
:100407003501AF5F12087B75340075350075362CE2
:100417007537007538017B007A0079111207F27B76
:10042700007A00792D753502AF5D12087B753400AF
:1004370075350075362D7537007538027B007A00E3
:1004470079111207F275340075350075362F7B0068
:100457007A0079111208E4E4FF74112FF8E6F59990
:090467003099FDC2990FBF10F09D
:010470002269
:10077200020471E493A3F8E493A34003F68001F228
:1007820008DFF48029E493A3F85407240CC8C33388
:10079200C4540F4420C8834004F456800146F6DF57
:1007A200E4800B0102040810204080900A1BE47EC2
:1007B200019360BCA3FF543F30E509541FFEE4934C
:1007C200A360010ECF54C025E060A840B8E493A313
:1007D200FAE493A3F8E493A3C8C582C8CAC583CA3E
:1007E200F0A3C8C582C8CAC583CADFE9DEE780BEF6
:010A400000B5
:10000300E709F608DFFA8046E709F208DFFA803EDF
:1000130088828C83E709F0A3DFFA8032E309F608CC
:10002300DFFA8078E309F208DFFA807088828C8334
:10003300E309F0A3DFFA806489828A83E0A3F608E8
:10004300DFFA805889828A83E0A3F208DFFA804CC2
:1000530080D280FA80C680D4806980F28033801099
:1000630080A680EA809A80A880DA80E280CA803302
:1000730089828A83ECFAE493A3C8C582C8CCC5837A
:10008300CCF0A3C8C582C8CCC583CCDFE9DEE7804A
:100093000D89828A83E493A3F608DFF9ECFAA9F0C9
:1000A300EDFB2289828A83ECFAE0A3C8C582C8CC1F
:1000B300C583CCF0A3C8C582C8CCC583CCDFEADE38
:1000C300E880DB89828A83E493A3F208DFF980CC9A
:1000D30088F0EF60010E4E60C388F0ED2402B40493
:1000E3000050B9F582EB2402B4040050AF2323453A
:0600F3008223900053730C
:1000F900BB010689828A83F0225002F722BBFE01E6
:02010900F322DF
:10010B00F8BB010DE58229F582E5833AF583E8F02A
:10011B00225006E92582C8F622BBFE05E92582C8D6
:02012B00F222BE
:10012D00BC000BBE0029EF8DF084FFADF022E4CCB6
:10013D00F875F008EF2FFFEE33FEEC33FCEE9DEC7F
:10014D00984005FCEE9DFE0FD5F0E9E4CEFD22EDC5
:10015D00F8F5F0EE8420D21CFEADF075F008EF2F0F
:10016D00FFED33FD4007985006D5F0F222C398FD00
:05017D000FD5F0EA229D
:10018200C2D5EC30E709B2D5E4C39DFDE49CFCEE98
:1001920030E715B2D5E4C39FFFE49EFE12012DC3E2
:1001A200E49DFDE49CFC800312012D30D507C3E4DD
:0601B2009FFFE49EFE2207
:1008E4008B318A3289338B378A388939AB31053376
:1008F400E533AA327002053214F91202A170ED74C4
:10090400FF2533F53374FF3532F532AB340536E564
:1009140036AA357002053514F91202A1FFAB310570
:1009240033E533AA327002053214F9EF1200F9707C
:08093400DAAB37AA38A9392219
:1007F2008B318A328933E4F539F53AD3E5389400FE
:10080200E53764809480406AAB31AA32A933853AD5
:10081200828539831202BA600A053AE53A70E9051F
:100822003980E5AB34AA35A9361202A16034053607
:10083200E5367002053514F91202A1FFAB31AA3276
:10084200A933053AE53AAC397002053914F5828CC0
:1008520083EF12010BE5381538700215371445374E
:1008620070C1AB31AA32A933853A82853983E41249
:09087200010BAB31AA32A93322BB
:1001B800E709F60870FA8046E709F20870FA803E07
:1001C80088828C83E709F0A370FA807EE309F60839
:1001D80070FA8076E309F20870FA806E88828C8360
:1001E800E309F0A370FA806289828A83E0A3F608A3
:1001F80070FA805689828A83E0A3F20870FA804AEE
:1002080080D280FA80C680D4806580F280318010E8
:1002180080A680EA809A80A880DA80E280CA80314D
:1002280089828A83ECFAE493A3C8C582C8CCC583C3
:10023800CCF0A3C8C582C8CCC583CC70E9800D8931
:10024800828A83E493A3F60870F9ECFAA9F0EDFB2F
:100258002289828A83ECFAE0A3C8C582C8CCC58308
:10026800CCF0A3C8C582C8CCC583CC70EA80DD8930
:10027800828A83E493A3F20870F980CE88F0ED2493
:1002880002B4040050C4F582EB2402B4040050BA4E
:0902980023234582239002087320
:1002A100BB010689828A83E0225002E722BBFE025B
:0902B100E32289828A83E493228E
:1002BA00BB010CE58229F582E5833AF583E02250F9
:1002CA0006E92582F8E622BBFE06E92582F8E22243
:0D02DA00E58229F582E5833AF583E493225D
:00000001FF
