:030000000209886A
:0C098800787FE4F6D8FD75816D0209CF80
:100DC20054656D703A20313148756D693A2032327E
:060DD200636C6F73650005
:100BAC00015E32015D32015F3201621E0163280178
:060BBC005C000260000174
:1004CD00750901E4F50A120DEE120D38120DD81250
:1004DD000818120E2C7F2C7E01120003120E2FE530
:1004ED00096041E55B30E7F71206288F09E50960E1
:1004FD002C2430F5993099FDC29975992B3099FDC1
:10050D00C299E4F50AE50AC3955C50117447250AB2
:10051D00F8E6F5993099FDC299050A80E8E4F55B96
:10052D00D2AC80BBC2AC750E00750F007510677B29
:10053D00007A0079651207338F08E4FF120B5E8F86
:10054D0064EF75F064A4E5F0F564FBAD67AF65127B
:10055D000BF48F667D077F01120E01E56575F00ABC
:10056D00842430FF120DABE56575F00A84E5F024A7
:10057D0030FF120DAB7D077F02120E01E56775F09E
:10058D000A842430FF120DABE56775F00A84E5F09F
:10059D002430FF120DABE56475F00A84900E1393B1
:1005AD00FD7C007F077E00120D07E56475F00A845F
:1005BD00E5F0900E1393FD7C007F087E00120D0771
:1005CD00E56675F00A84900E1393FD7C007F037E23
:1005DD0000120D07E56675F00A84E5F0900E139391
:1005ED00FD7C007F047E00120D077F647E001200EB
:1005FD000312030A1208D67D0F7F01120E01E56961
:10060D0075F00A842430FF120DABE56975F00A848C
:0B061D00E5F02430FF120DAB020533A6
:100818007D017F01120E01E4F50BE50B900DC293EB
:10082800FF120DAB050BE50BC3940840ED7FDF12FB
:100838000DAB7F43120DAB7D017F02120E01E4F573
:100848000BE50B900DCA93FF120DAB050BE50BC31F
:10085800940840ED7F25120DAB7D0C7F02120E012E
:10086800E4F50BE50B900DD293FF120DAB050BE5EC
:100878000BC3940540ED7D017C007F017E00120DC5
:10088800077D017C007F027E00120D077D017C0040
:100898007F037E00120D077D017C007F047E00121D
:1008A8000D077D017C007F057E00120D077D017C10
:1008B800007F067E00120D077D017C007F077E0009
:0E08C800120D077D017C007F087E00020D07E7
:100BF400E4FEF50BF9FCEFD3955E4008750B01EFAD
:100C0400955E2EFEEDC3955D50087903C3E55D9DA9
:100C14002EFEEBD3955F40077C05EB955F2EFEE53A
:070C24000B292CF569AF0656
:010C2B0022A6
:10062800E55B547FF55CE4FFF55E74472FF8E6FE62
:10063800643B6019AD5C155CED6012E55E75F00A0F
:10064800A4F55EEE24D0255EF55E0F80DDE55ED371
:10065800946340037F01220FE4F55D74472FF8E6A9
:10066800FE643B6019AD5C155CED6012E55D75F0EC
:100678000AA4F55DEE24D0255DF55D0F80DDE55D0E
:10068800D3946340037F02220FE4F55F74472FF889
:10069800E6FE643B6019AD5C155CED6012E55F75C4
:1006A800F00AA4F55FEE24D0255FF55F0F80DDE545
:1006B8005FD3946340037F03220FE4F56274472FEE
:1006C800F8E6FE643B6019AD5C155CED6012E5620E
:1006D80075F00AA4F562EE24D02562F5620F80DD7C
:1006E800E562D3946340037F04220FE4F563744703
:1006F8002FF8E6FE643B6019AD5C155CED6012E511
:100708006375F00AA4F563EE24D02563F5630F80C2
:10071800DDE563D3946340037F0522120E2C7F2C02
:0A0728007E01120003120E2F7F0065
:0107320022A4
:1008D600E566D395634040120C2C120E2C0561E59B
:1008E6006170020560AE60FF7C007D03120150ED71
:1008F6002401FFE43CFE120D647F647E00120003B7
:10090600AE60AF617C007D03120150ED2401FFE46F
:100916003CFE120D7C8048E566D395624048120C79
:10092600640561E56170020560AE60FF7C007D03D1
:10093600120150ED2401FFE43CFE120D64120E2C50
:100946007F647E00120003AE60AF617C007D0312FF
:100956000150ED2401FFE43CFE120D7C120E2F7FA8
:10096600327E00020003120C64120E2F7F027E00FC
:10097600120D647F017E00120D7C7F037E00120D36
:020986007C22D1
:0A0E13007E306D79335B5F707F7BEA
:100D0700AB05AA04D2977D08C296EF339295EF25DB
:100D1700E0FFEE33FED296DDEF7D08C296EB33920D
:100D270095EB25E0FBEA33FAD296DDEFC297D2972F
:010D37002299
:100D3800E4FDFC7F09FE120D077D017F0A7E00128B
:100D48000D077D077F0B7E00120D077D017F0C7E4E
:0C0D580000120D07E4FD7F0FFE020D07E6
:030E2C00C2A0223F
:030E2F00D2A0222C
:100D6400EE7014EF24FE600A14600A24027008C2B4
:080D7400A222C2A322C2A122A7
:100D7C00EE7014EF24FE600A14600A24027008D28C
:080D8C00A222D2A322D2A1226F
:060BC200046AFEFDFBF7D2
:100C2C00E4F50B750C78E568D39405400122150C9E
:100C3C00E50C6020E4F50BE50BC3940450F0746AEA
:100C4C00250BF8E652907F057E0012000343900FAF
:070C5C00050B80E37568073A
:010C6300226E
:100C6400E4F50B750C78E568C39405500122150C66
:100C7400E50C6020750B04E50BD3940040F0746917
:100C8400250BF8E652907F057E0012000343900F77
:070C9400150B80E3756803F6
:010C9B002236
:100D9400C2B58F807F057E00120003D2B47F057E2A
:070DA40000120003C2B4229B
:100DAB00D2B58F807F057E00120003D2B47F057E03
:070DBB0000120003C2B42284
:100DD800C2B47F38120D947F0C120D947F06120D49
:060DE800947F01020D944E
:020E0100AE073A
:100E03007F80BE020474402FFFED142FFF020D9468
:050E27000000000000C6
:060733008B0B8A0C890DFE
:1007390078117C007D007BFF7A0E79277E007F058A
:100749001200F6751832D2947F027E00120003C29D
:10075900947F1E7E00120003D2947F037E00120E46
:100769001D751832309406D518FA7F01223094FD90
:100779007F037E00120E1D2094037F02227518321A
:10078900309406D518FA7F0322E4F516E4F51774B8
:10079900112516F8C000E625E0D000F63094FD7F5B
:1007A900037E00120E1DA294E433FF74112516F87E
:1007B900EF26F67518322094FDD518037F0422051B
:1007C90017E517C3940840C70516E516C3940540F5
:1007D900BBD294E5112512FFE433FE7C00EF25130B
:1007E900FFEC3EFEEF2514FFEC3EFEEF65157001B0
:1007F900EE60037F0522AB0BAA0CA90DE5131201CC
:0E0809001CAB0EAA0FA910E51112011C7F00F6
:0108170022BE
:100B5E00E4FBFAC2A5D2A7C2A40000D2A50000C22F
:100B6E00A5D2A70000D2A50000C2A5EF24FF92A730
:100B7E000000D2A50000C2A5D2A6E4FD0000D2A5B9
:100B8E000000C2A5EB25E0FBEA33FA30A6034303CF
:0D0B9E00010DBD08E7C2A5D2A4AE02AF0351
:010BAB002227
:100BC80001650B01670B01640B01690B01680301E7
:020BD8006600B5
:10000300D3EF9400EE940040147D6E7C00ED1D70E0
:0D001300011CED4C70F7EF1F70E61E80E33E
:0100200022BD
:0A0E1D00EF1F70011E144E70F72243
:100C9C000000000000000000000000000000000048
:100CAC000000000000000000000000000000000038
:100CBC000000000000736D61727400000000000001
:060CCC00000000006F6B48
:100BDA0014470000000000000000000000000000B0
:090BEA00000000000000015B00A6
:100DEE00759850758920758DFD758BFDD2ACD28EA0
:030DFE00D2AF224F
:080A9D008F2D8B2E8A2F89306A
:100AA500E4F53278337C00FD7BFF7A0C799CFE7F80
:100AB500141200F6E4F532E52D75F00A84E5F0240C
:100AC50030FF74332532F8A607E52D75F00A84F555
:100AD5002D0532E532B414DFE4F532E532C3953144
:100AE500501EC3E5319532FF74322FF8E6AB2EAABE
:100AF5002FA93085328275830012012E053280DBE5
:010B050022CD
:10030A00780B7C007D007BFF7A0C79B07E007F1130
:10031A001200F6781C7C007D007BFF7A0C79C17E86
:10032A00007F051200F678217C007D007BFF7A0CA5
:10033A0079C67E007F021200F678237C007D007B5E
:10034A00FF7A0C79C87E007F021200F678257C00BD
:10035A007D007BFF7A0C79CA7E007F021200F67854
:10036A00277C007D007BFF7A0C79CC7E007F02120D
:10037A0000F678297C007D007BFF7A0C79CE7E001E
:10038A007F011200F6782A7C007D007BFF7A0C79C7
:10039A00CF7E007F011200F6782B7C007D007BFF68
:1003AA007A0C79D07E007F021200F6780B7C007DF1
:1003BA00007B007A00791C1202527B007A007921B4
:1003CA00753102AF65120A9D7530007531007532BC
:1003DA00217533007534027B007A00790B120A14F6
:1003EA007B007A007923753102AF67120A9D753056
:1003FA00007531007532237533007534027B007A3B
:10040A0000790B120A147B007A007925753102AF44
:10041A0064120A9D753000753100753225753300F6
:10042A007534027B007A00790B120A147B007A0079
:10043A007927753102AF66120A9D75300075310051
:10044A007532277533007534027B007A00790B12F6
:10045A000A147B007A007929753101AF69120A9D65
:10046A007530007531007532297533007534017B9A
:10047A00007A00790B120A147B007A00792A753106
:10048A0001AF68120A9D75300075310075322A7500
:10049A0033007534017B007A00790B120A14753027
:1004AA000075310075322B7B007A00790B120B062E
:1004BA00E4FF740B2FF8E6F5993099FDC2990FBF46
:0204CA0011F02F
:0104CC00220D
:03002300020CD2FA
:0B0CD200C0E0C0D075D000C000C0071B
:100CDD0030981EAF99E55B20E717BF4507C2AC43BF
:100CED005B80800BE55B547F2447F8A607055BC24C
:010CFD00985E
:090CFE00D007D000D0D0D0E032C4
:100994000204CDE493A3F8E493A34003F68001F2A8
:1009A40008DFF48029E493A3F85407240CC8C33364
:1009B400C4540F4420C8834004F456800146F6DF33
:1009C400E4800B0102040810204080900BACE47E0C
:1009D400019360BCA3FF543F30E509541FFEE49328
:1009E400A360010ECF54C025E060A840B8E493A3EF
:1009F400FAE493A3F8E493A3C8C582C8CAC583CA1A
:100A0400F0A3C8C582C8CAC583CADFE9DEE780BED1
:010BF3000001
:10002600E709F608DFFA8046E709F208DFFA803EBC
:1000360088828C83E709F0A3DFFA8032E309F608A9
:10004600DFFA8078E309F208DFFA807088828C8311
:10005600E309F0A3DFFA806489828A83E0A3F608C5
:10006600DFFA805889828A83E0A3F208DFFA804C9F
:1000760080D280FA80C680D4806980F28033801076
:1000860080A680EA809A80A880DA80E280CA8033DF
:1000960089828A83ECFAE493A3C8C582C8CCC58357
:1000A600CCF0A3C8C582C8CCC583CCDFE9DEE78027
:1000B6000D89828A83E493A3F608DFF9ECFAA9F0A6
:1000C600EDFB2289828A83ECFAE0A3C8C582C8CCFC
:1000D600C583CCF0A3C8C582C8CCC583CCDFEADE15
:1000E600E880DB89828A83E493A3F208DFF980CC77
:1000F60088F0EF60010E4E60C388F0ED2402B40470
:100106000050B9F582EB2402B4040050AF23234516
:06011600822390007673C5
:10011C00BB010689828A83F0225002F722BBFE01C2
:02012C00F322BC
:10012E00F8BB010DE58229F582E5833AF583E8F007
:10013E00225006E92582C8F622BBFE05E92582C8B3
:02014E00F2229B
:10015000C2D5EC30E709B2D5E4C39DFDE49CFCEECA
:1001600030E715B2D5E4C39FFFE49EFE1202B5C38B
:10017000E49DFDE49CFC80031202B530D507C3E486
:060180009FFFE49EFE2239
:100B06008B2D8A2E892F8B338A348935AB2D052F71
:100B1600E52FAA2E7002052E14F912026F70ED74DD
:100B2600FF252FF52F74FF352EF52EAB300532E558
:100B360032AA317002053114F912026FFFAB2D058E
:100B46002FE52FAA2E7002052E14F9EF12011C7044
:080B5600DAAB33AA34A9352201
:100A14008B2D8A2E892FE4F535F536D3E5349400F1
:100A2400E53364809480406AAB2DAA2EA92F8536C5
:100A340082853583120288600A0536E53670E90539
:100A44003580E5AB30AA31A93212026F6034053229
:100A5400E5327002053114F912026FFFAB2DAA2E94
:100A6400A92F0536E536AC357002053514F5828CB0
:100A740083EF12012EE53415347002153314453317
:100A840070C1AB2DAA2EA92F853682853583E41239
:090A9400012EAB2DAA2EA92F2280
:10018600E709F60870FA8046E709F20870FA803E39
:1001960088828C83E709F0A370FA807EE309F6086B
:1001A60070FA8076E309F20870FA806E88828C8392
:1001B600E309F0A370FA806289828A83E0A3F608D5
:1001C60070FA805689828A83E0A3F20870FA804A20
:1001D60080D280FA80C680D4806580F2803180101B
:1001E60080A680EA809A80A880DA80E280CA803180
:1001F60089828A83ECFAE493A3C8C582C8CCC583F6
:10020600CCF0A3C8C582C8CCC583CC70E9800D8963
:10021600828A83E493A3F60870F9ECFAA9F0EDFB61
:100226002289828A83ECFAE0A3C8C582C8CCC5833A
:10023600CCF0A3C8C582C8CCC583CC70EA80DD8962
:10024600828A83E493A3F20870F980CE88F0ED24C5
:1002560002B4040050C4F582EB2402B4040050BA80
:0902660023234582239001D67385
:10026F00BB010689828A83E0225002E722BBFE028D
:09027F00E32289828A83E49322C0
:10028800BB010CE58229F582E5833AF583E022502B
:1002980006E92582F8E622BBFE06E92582F8E22275
:0D02A800E58229F582E5833AF583E493228F
:1002B500BC000BBE0029EF8DF084FFADF022E4CC2D
:1002C500F875F008EF2FFFEE33FEEC33FCEE9DECF6
:1002D500984005FCEE9DFE0FD5F0E9E4CEFD22ED3C
:1002E500F8F5F0EE8420D21CFEADF075F008EF2F86
:1002F500FFED33FD4007985006D5F0F222C398FD77
:050305000FD5F0EA2213
:00000001FF
