:0300000002048572
:0C048500787FE4F6D8FD75812E0204CCCF
:0D060A000B1F537072696E675F5465787442
:10019600750801750901750B00750C0112059012A1
:1001A600064F7D027F01120665E4F50FF510741FF8
:1001B6002510F8E6FF1206380510E5107002050F47
:1001C600C3940BE50F940040E51206907F2C7E0148
:1001D6001205BC1206937F5A1203E67FDC7E0512D7
:1001E60005BCE4FF1203E67FDC7E051205BC7F5AE0
:1001F6001203E67FDC7E051205BCE4FF1203E67FF0
:10020600DC7E051205BC050CE50C7002050BAE0B79
:10021600FF7C007D03120160ED2401FFE43CFE1229
:1002260005DA7F587E021205BCAE0BAF0C7C007D52
:1002360003120160ED2401FFE43CFE1205F27F2D5E
:100246001203E67514007515007516097B007A0011
:1002560079081203018F0AE4FF1205118E0D8F0E25
:10026600E50875F00A8490067793FD7C007F017E91
:100276000012055FE50875F00A84E5F090067793AD
:10028600FD7C007F027E0012055FE50975F00A8499
:1002960090067793FD7C007F077E0012055FE509D7
:1002A60075F00A84E5F090067793FD7C007F087E62
:1002B6000012055F7D027F02120665AE0DAF0E7C51
:1002C600007D6412010BEF2430FF120638AE0DAF2D
:1002D6000E7C007D0A12010B7C007D0A12010BEDDB
:1002E6002430FF120638AE0DAF0E7C007D0A1201D7
:0B02F6000BED2430FF12063802020C52
:0A0677007E306D79335B5F707F7B8E
:10055F00AB05AA04D2977D08C296EF339295EF258B
:10056F00E0FFEE33FED296DDEF7D08C296EB3392BD
:10057F0095EB25E0FBEA33FAD296DDEFC297D297DF
:01058F002249
:10059000E4FDFC7F09FE12055F7D077F0A7E0012E5
:1005A000055F7D077F0B7E0012055F7D017F0C7E5E
:0C05B0000012055FE4FD7F0FFE02055FF6
:03069000C2A022E3
:03069300D2A022D0
:1005DA00EE7014EF24FE600A14600A24027008C246
:0805EA00A222C2A322C2A12239
:1005F200EE7014EF24FE600A14600A24027008D21E
:08060200A222D2A322D2A12200
:09061700042BFEFDFBF7012A0093
:0203E6008F1175
:1003E800E4F512751505E511652A7003020484E524
:1003F80011D3945A4003020484E511C39400407C4D
:10040800E511D3952A4038E511952AF5121512E51C
:10041800126066E4F513F514C3E5149404E5139427
:100428000050EA742B2514F8E65290AF157E00129E
:1004380005BC43900F0514E51470DD051380D9C37E
:10044800E52A9511F5121512E512602D7513007540
:100458001404D3E5149400E513940040E9742A25A4
:1004680014F8E65290AF157E001205BC43900FE5D4
:0C04780014151470DD151380D985112AAD
:010484002255
:10062100C2B58F807F057E001205BCD2B47F057EE6
:07063100001205BCC2B42257
:10063800D2B58F807F057E001205BCD2B47F057EBF
:07064800001205BCC2B42240
:10064F00C2B47F381206217F0C1206217F061206D4
:06065F00217F01020621CB
:02066500AE07DE
:100667007F80BE020474402FFFED142FFF02062186
:05068B0000000000006A
:060301008B118A12891322
:1003070078177C007D007BFF7A06798B7E007F055E
:100317001200D3751E32D2947F027E001205BCC232
:10032700947F1E7E001205BCD2947F037E001206C6
:1003370081751E32309406D51EFA7F01223094FD56
:100347007F037E001206812094037F0222751E32EE
:10035700309406D51EFA7F0322E4F51CE4F51D74DC
:1003670017251CF8C000E625E0D000F63094FD7F85
:10037700037E00120681A294E433FF7417251CF84C
:10038700EF26F6751E322094FDD51E037F04220545
:100397001DE51DC3940840C7051CE51CC394054013
:1003A700BBD294E5172518FFE433FE7C00EF25192F
:1003B700FFEC3EFEEF251AFFEC3EFEEF651B7001DA
:1003C700EE60037F0522AB11AA12A913E5191200EB
:0E03D700F9AB14AA15A916E5171200F97F005C
:0103E50022F5
:10051100E4FBFAC2A7D2A5C2A40000D2A70000C280
:10052100A7D2A50000D2A70000C2A7EF24FF92A581
:100531000000D2A70000C2A7D2A6E4FD0000D2A706
:100541000000C2A7EB25E0FBEA33FA30A603430320
:0D055100010DBD08E7C2A7D2A4AE02AF03A2
:01055E00227A
:1005BC00D3EF9400EE940040147D6E7C00ED1D7022
:0D05CC00011CED4C70F7EF1F70E61E80E380
:0105D90022FF
:0A068100EF1F70011E144E70F722E7
:10049100020196E493A3F8E493A34003F68001F2EA
:1004A10008DFF48029E493A3F85407240CC8C3336C
:1004B100C4540F4420C8834004F456800146F6DF3B
:1004C100E4800B010204081020408090060AE47EBB
:1004D100019360BCA3FF543F30E509541FFEE49330
:1004E100A360010ECF54C025E060A840B8E493A3F7
:1004F100FAE493A3F8E493A3C8C582C8CAC583CA22
:10050100F0A3C8C582C8CAC583CADFE9DEE780BED9
:0106200000D9
:10000300E709F608DFFA8046E709F208DFFA803EDF
:1000130088828C83E709F0A3DFFA8032E309F608CC
:10002300DFFA8078E309F208DFFA807088828C8334
:10003300E309F0A3DFFA806489828A83E0A3F608E8
:10004300DFFA805889828A83E0A3F208DFFA804CC2
:1000530080D280FA80C680D4806980F28033801099
:1000630080A680EA809A80A880DA80E280CA803302
:1000730089828A83ECFAE493A3C8C582C8CCC5837A
:10008300CCF0A3C8C582C8CCC583CCDFE9DEE7804A
:100093000D89828A83E493A3F608DFF9ECFAA9F0C9
:1000A300EDFB2289828A83ECFAE0A3C8C582C8CC1F
:1000B300C583CCF0A3C8C582C8CCC583CCDFEADE38
:1000C300E880DB89828A83E493A3F208DFF980CC9A
:1000D30088F0EF60010E4E60C388F0ED2402B40493
:1000E3000050B9F582EB2402B4040050AF2323453A
:0600F3008223900053730C
:1000F900BB010689828A83F0225002F722BBFE01E6
:02010900F322DF
:10010B00BC000BBE0029EF8DF084FFADF022E4CCD8
:10011B00F875F008EF2FFFEE33FEEC33FCEE9DECA1
:10012B00984005FCEE9DFE0FD5F0E9E4CEFD22EDE7
:10013B00F8F5F0EE8420D21CFEADF075F008EF2F31
:10014B00FFED33FD4007985006D5F0F222C398FD22
:05015B000FD5F0EA22BF
:10016000C2D5EC30E709B2D5E4C39DFDE49CFCEEBA
:1001700030E715B2D5E4C39FFFE49EFE12010BC326
:10018000E49DFDE49CFC800312010B30D507C3E421
:060190009FFFE49EFE2229
:00000001FF
