:030000000207757F
:0C077500787FE4F6D8FD7581510207BCC6
:100B680054656D703A20313148756D693A203232DA
:060B7800636C6F73650061
:1004AA00750900750A01120B94120AA4120B7E1226
:1004BA0008F3120BD27F2C7E01120AD0120BD57FC1
:1004CA002D1206D6050AE50A70020509AE09FF7C57
:1004DA00007D0312012DED2401FFE43CFE120B0AFC
:1004EA007F587E02120AD0AE09AF0A7C007D031241
:1004FA00012DED2401FFE43CFE120B22750E00755E
:10050A000F0075104B7B007A0079481205F18F08AD
:10051A00E4FF1209B28F47EF75F064A4E5F0F547DE
:10052A00FBAD4BAF48120A008F497D077F01120BC2
:10053A00A7E54875F00A842430FF120B51E5487587
:10054A00F00A84E5F02430FF120B517D077F021276
:10055A000BA7E54B75F00A842430FF120B51E54BCB
:10056A0075F00A84E5F02430FF120B51E54975F065
:10057A000A84900BB993FD7C007F037E00120A73F4
:10058A00E54975F00A84E5F0900BB993FD7C007F8C
:10059A00047E00120A73E54775F00A84900BB9933A
:1005AA00FD7C007F077E00120A73E54775F00A8416
:1005BA00E5F0900BB993FD7C007F087E00120A7368
:1005CA007D0F7F01120BA7E54C75F00A842430FFDA
:1005DA00120B51E54C75F00A84E5F02430FF120B3A
:0705EA00511202E70204CEEA
:1008F3007D017F01120BA7E4F50BE50B900B6893C9
:10090300FF120B51050BE50BC3940840ED7FDF127B
:100913000B517F43120B517D017F02120BA7E4F5AC
:100923000BE50B900B7093FF120B51050BE50BC3FB
:10093300940840ED7F25120B517D0C7F02120BA70B
:10094300E4F50BE50B900B7893FF120B51050BE5C8
:060953000BC3940540ED0A
:01095900227B
:100A0000E4F50BF9FCED25E0FEEF75F003A42EFEF6
:100A1000EB75F005A42E75F00A84FEEFD394234005
:100A200003750B01EDC3941E50027903EBD3941EA2
:0C0A300040027C05E50B292CF54CAF06BC
:010A3C002297
:0A0BB9007E306D79335B5F707F7B47
:100A7300AB05AA04D2977D08C296EF339295EF2572
:100A8300E0FFEE33FED296DDEF7D08C296EB3392A4
:100A930095EB25E0FBEA33FAD296DDEFC297D297C6
:010AA3002230
:100AA400E4FDFC7F09FE120A737D077F0A7E0012B3
:100AB4000A737D077F0B7E00120A737D017F0C7E13
:0C0AC40000120A73E4FD7F0FFE020A73AB
:030BD200C2A0229C
:030BD500D2A02289
:100B0A00EE7014EF24FE600A14600A24027008C210
:080B1A00A222C2A322C2A12203
:100B2200EE7014EF24FE600A14600A24027008D2E8
:080B3200A222D2A322D2A122CB
:090AEE00044EFEFDFBF7014D0072
:0206D6008F0B88
:1006D800E4F50C750F05E50B654D7003020774E52D
:1006E8000BD3945A4003020774E50BC39400407C73
:1006F800E50BD3954D4038E50B954DF50C150CE5FC
:100708000C6066E4F50DF50EC3E50E9404E50D9452
:100718000050EA744E250EF8E65290AF0F7E001294
:100728000AD043900F050EE50E70DD050D80D9C384
:10073800E54D950BF50C150CE50C602D750D007548
:100748000E04D3E50E9400E50D940040E9744D25A0
:100758000EF8E65290AF0F7E00120AD043900FE5D4
:0C0768000E150E70DD150D80D9850B4DAF
:010774002262
:100B3A00C2B58F807F057E00120AD0D2B47F057EAF
:070B4A0000120AD0C2B42220
:100B5100D2B58F807F057E00120AD0D2B47F057E88
:070B610000120AD0C2B42209
:100B7E00C2B47F38120B3A7F0C120B3A7F06120B5F
:060B8E003A7F01020B3A60
:020BA700AE0797
:100BA9007F80BE020474402FFFED142FFF020B3A21
:050BCD00000000000023
:0605F1008B0B8A0C890D42
:1005F70078117C007D007BFF7A0B79CD7E007F052B
:100607001200D3751832D2947F027E00120AD0C22C
:10061700947F1E7E00120AD0D2947F037E00120BB5
:10062700C3751832309406D518FA7F01223094FD2D
:100637007F037E00120BC32094037F0222751832BA
:10064700309406D518FA7F0322E4F516E4F51774FB
:10065700112516F8C000E625E0D000F63094FD7F9E
:10066700037E00120BC3A294E433FF74112516F81E
:10067700EF26F67518322094FDD518037F0422055E
:1006870017E517C3940840C70516E516C394054038
:10069700BBD294E5112512FFE433FE7C00EF25134E
:1006A700FFEC3EFEEF2514FFEC3EFEEF65157001F3
:1006B700EE60037F0522AB0BAA0CA90DE513120010
:0E06C700F9AB0EAA0FA910E5111200F97F0081
:0106D5002202
:1009B200E4FBFAC2A7D2A5C2A40000D2A70000C2DB
:1009C200A7D2A50000D2A70000C2A7EF24FF92A5DC
:1009D2000000D2A70000C2A7D2A6E4FD0000D2A761
:1009E2000000C2A7EB25E0FBEA33FA30A60343037B
:0D09F200010DBD08E7C2A7D2A4AE02AF03FD
:0109FF0022D5
:100AF70001480B014B0B01470B014C0B014A0B0142
:020B07004900A3
:100AD000D3EF9400EE940040147D6E7C00ED1D7009
:0D0AE000011CED4C70F7EF1F70E61E80E367
:010AED0022E6
:0A0BC300EF1F70011E144E70F722A0
:100A3D0000000000000000000000000000000000A9
:100A4D000000000000000000000000000000000099
:100A5D000000000000736D61727400000000000062
:060A6D00000000006F6BA9
:100B9400759850758920758DFD758BFDD2ACD28EFC
:030BA400D2AF22AB
:08088A008F2D8B2E8A2F89307F
:10089200E4F53278337C00FD7BFF7A0A793DFE7FF6
:1008A200141200D3E4F532E52D75F00A84E5F02444
:1008B20030FF74332532F8A607E52D75F00A84F56A
:1008C2002D0532E532B414DFE4F532E532C3953159
:1008D200501EC3E5319532FF74322FF8E6AB2EAAD3
:1008E2002FA93085328275830012010B053280DB1D
:0108F20022E3
:1002E700780B7C007D007BFF7A0A79517E007F11B5
:1002F7001200D3781C7C007D007BFF7A0A79627E2E
:10030700007F051200D378217C007D007BFF7A0AED
:1003170079677E007F021200D378237C007D007B03
:10032700FF7A0A79697E007F021200D378257C0064
:100337007D007BFF7A0A796B7E007F021200D378FB
:10034700277C007D007BFF7A0A796D7E007F021291
:1003570000D378297C007D007BFF7A0A796F7E00C5
:100367007F011200D3782A7C007D007BFF7A0A790F
:10037700707E007F011200D3782B7C007D007BFF0D
:100387007A0A79717E007F021200D3780B7C007D98
:10039700007B007A00791C12022F7B007A007921FA
:1003A700753102AF4812088A753000753100753211
:1003B700217533007534027B007A00790B1208012E
:1003C7007B007A007923753102AF4B12088A7530AA
:1003D700007531007532237533007534027B007A5E
:1003E70000790B1208017B007A007925753102AF7D
:1003F7004712088A7530007531007532257533004C
:100407007534027B007A00790B1208017B007A00B1
:100417007927753102AF4912088A753000753100A6
:100427007532277533007534027B007A00790B1219
:1004370008017B007A007929753101AF4C12088ACF
:100447007530007531007532297533007534017BBD
:10045700007A00790B1208017B007A00792A75313E
:1004670001AF4A12088A75300075310075322A7556
:1004770033007534017B007A00790B12080175305F
:100487000075310075322B7B007A00790B12095AFF
:10049700E4FF740B2FF8E6F5993099FDC2990FBF69
:0204A70010F053
:0104A9002230
:100781000204AAE493A3F8E493A34003F68001F2E0
:1007910008DFF48029E493A3F85407240CC8C33379
:1007A100C4540F4420C8834004F456800146F6DF48
:1007B100E4800B0102040810204080900AEEE47EE0
:1007C100019360BCA3FF543F30E509541FFEE4933D
:1007D100A360010ECF54C025E060A840B8E493A304
:1007E100FAE493A3F8E493A3C8C582C8CAC583CA2F
:1007F100F0A3C8C582C8CAC583CADFE9DEE780BEE7
:010B090000EB
:10000300E709F608DFFA8046E709F208DFFA803EDF
:1000130088828C83E709F0A3DFFA8032E309F608CC
:10002300DFFA8078E309F208DFFA807088828C8334
:10003300E309F0A3DFFA806489828A83E0A3F608E8
:10004300DFFA805889828A83E0A3F208DFFA804CC2
:1000530080D280FA80C680D4806980F28033801099
:1000630080A680EA809A80A880DA80E280CA803302
:1000730089828A83ECFAE493A3C8C582C8CCC5837A
:10008300CCF0A3C8C582C8CCC583CCDFE9DEE7804A
:100093000D89828A83E493A3F608DFF9ECFAA9F0C9
:1000A300EDFB2289828A83ECFAE0A3C8C582C8CC1F
:1000B300C583CCF0A3C8C582C8CCC583CCDFEADE38
:1000C300E880DB89828A83E493A3F208DFF980CC9A
:1000D30088F0EF60010E4E60C388F0ED2402B40493
:1000E3000050B9F582EB2402B4040050AF2323453A
:0600F3008223900053730C
:1000F900BB010689828A83F0225002F722BBFE01E6
:02010900F322DF
:10010B00F8BB010DE58229F582E5833AF583E8F02A
:10011B00225006E92582C8F622BBFE05E92582C8D6
:02012B00F222BE
:10012D00C2D5EC30E709B2D5E4C39DFDE49CFCEEED
:10013D0030E715B2D5E4C39FFFE49EFE120292C3D1
:10014D00E49DFDE49CFC800312029230D507C3E4CC
:06015D009FFFE49EFE225C
:10095A008B2D8A2E892F8B338A348935AB2D052F1F
:10096A00E52FAA2E7002052E14F912024C70ED74AE
:10097A00FF252FF52F74FF352EF52EAB300532E506
:10098A0032AA317002053114F912024CFFAB2D055F
:10099A002FE52FAA2E7002052E14F9EF1200F97016
:0809AA00DAAB33AA34A93522AF
:100801008B2D8A2E892FE4F535F536D3E534940006
:10081100E53364809480406AAB2DAA2EA92F8536DA
:1008210082853583120265600A0536E53670E90571
:100831003580E5AB30AA31A93212024C6034053261
:10084100E5327002053114F912024CFFAB2DAA2ECC
:10085100A92F0536E536AC357002053514F5828CC5
:1008610083EF12010BE5341534700215331445334F
:1008710070C1AB2DAA2EA92F853682853583E4124E
:09088100010BAB2DAA2EA92F22B8
:10016300E709F60870FA8046E709F20870FA803E5C
:1001730088828C83E709F0A370FA807EE309F6088E
:1001830070FA8076E309F20870FA806E88828C83B5
:10019300E309F0A370FA806289828A83E0A3F608F8
:1001A30070FA805689828A83E0A3F20870FA804A43
:1001B30080D280FA80C680D4806580F2803180103E
:1001C30080A680EA809A80A880DA80E280CA8031A3
:1001D30089828A83ECFAE493A3C8C582C8CCC58319
:1001E300CCF0A3C8C582C8CCC583CC70E9800D8987
:1001F300828A83E493A3F60870F9ECFAA9F0EDFB85
:100203002289828A83ECFAE0A3C8C582C8CCC5835D
:10021300CCF0A3C8C582C8CCC583CC70EA80DD8985
:10022300828A83E493A3F20870F980CE88F0ED24E8
:1002330002B4040050C4F582EB2402B4040050BAA3
:0902430023234582239001B373CB
:10024C00BB010689828A83E0225002E722BBFE02B0
:09025C00E32289828A83E49322E3
:10026500BB010CE58229F582E5833AF583E022504E
:1002750006E92582F8E622BBFE06E92582F8E22298
:0D028500E58229F582E5833AF583E49322B2
:10029200BC000BBE0029EF8DF084FFADF022E4CC50
:1002A200F875F008EF2FFFEE33FEEC33FCEE9DEC19
:1002B200984005FCEE9DFE0FD5F0E9E4CEFD22ED5F
:1002C200F8F5F0EE8420D21CFEADF075F008EF2FA9
:1002D200FFED33FD4007985006D5F0F222C398FD9A
:0502E2000FD5F0EA2237
:00000001FF
